:100000000C94CF010C94FB010C94FB010C94FB01AC
:100010000C94FB010C94FB010C94FB010C94FB0170
:100020000C94FB010C94FB010C94FB010C94FB0160
:100030000C94FB010C94CD490C94FB010C94FB0136
:100040000C94FB010C94FB010C94FB010C94FB0140
:100050000C94FB010C94FB010C94FB010C941B4FC2
:100060000C94FB010C94F5420C9421440C94FB017C
:100070000C94FB010C94FB010C94FB010C94FB0110
:100080000C94FB010C94FB010C94FB010C94FB0100
:100090000C942E430C9460440C94FB010C94FB01D3
:1000A0000C94FB010C94FB010C94FB010C94FB01E0
:1000B0000C94FB010C94FB010C94FB010C94FB01D0
:1000C0000C94FB010C94FB010C94FB010C94674312
:1000D0000C949F440C94FB010C94A0430C94DE44BC
:1000E0000C94FB0108000000BE922449123EABAA0A
:1000F000AA2ABECDCCCC4C3E00000080BEABAAAA42
:10010000AA3E00000000BF000000803F0000000089
:1001100000084178D3BB4387D1133D190E3CC3BDC2
:100120004282AD2B3E68EC8276BED98FE1A93E4C6F
:1001300080EFFFBE01C4FF7F3F00000000000763A7
:100140004236B79BD8A71A39685618AEBAAB558C49
:100150001D3CB7CC5763BD6DEDFD753EF617723192
:10016000BF000000803F0200002100240027002A79
:10017000002D003000330001010000040107010AD6
:100180000100002200250028002B002E0031003441
:100190000002010000050108010B010000200023FE
:1001A00000260029002C002F00320000010000036F
:1001B00001060109010505050507050808080802EB
:1001C0000202020A0A0808040404040101010101F0
:1001D0000101010303030303030303040707070CDF
:1001E0000C0C0C0C0C0C0C02020202060606060695
:1001F0000606060B0B0B0B0B0B0B0B010210202042
:10020000080810204010204080020102010804026A
:1002100001010204081020408080402010080402E0
:100220000180040201804020100804020108040239
:10023000010102040810204080010204081020403F
:10024000800000090A02080B0C0D070603040100D8
:10025000000000000000000000000000000000009E
:100260000000000000000000000000000011100F5E
:10027000000000000000000000000000000000007E
:100280000000000000000000407A10F35A00A07245
:100290004E18090010A5D4E80000E87648170000C1
:1002A000E40B54020000CA9A3B000000E1F505008F
:1002B0000080969800000040420F000000A08601D8
:1002C000000000102700000000E8030000000064A8
:1002D00000000000000A0000000000010000000013
:1002E000002C76D888DC674F0823DFC1DFAE59E1E8
:1002F000B1B796E5E3E453C63AE651997696E8E657
:10030000C28426EB898C9B62ED407C6FFCEFBC9C29
:100310009F40F2BAA56FA5F490055A2AF75C936B3B
:100320006CF9676DC11BFCE0E40D47FEF520E6B5F6
:1003300000D0ED902E0300943577050080841E08D0
:100340000000204E0A000000C80C333333330F98EE
:100350006E12831141EF8D2114893BE65516CFFEB5
:10036000E6DB18D1844B381BF77C1D901DA4BBE441
:1003700024203284725E228100C9F124ECA1E53D83
:10038000270038027C0EF30F72141117941BFE1D08
:100390001024602DE2341D42484672471042112459
:1003A0001FBECFEFD1E2DEBFCDBF00E00CBF19E032
:1003B000A0E0B2E0E2EDF3EB00E00BBF02C007907B
:1003C0000D92A834B107D9F71DE0A8E4B9E001C047
:1003D0001D92AC3FB107E1F713E0CCE9D3E004C0D4
:1003E0002297FE010E94DF54C238D107C9F70E944C
:1003F0000B4F0C94DC590C940000DF93CF930F92B9
:100400000F92CDB7DEB79A838983E981FA8184811F
:1004100095810F900F90CF91DF9108950F93DF9307
:10042000CF9300D00F92CDB7DEB79A8389837C83B8
:100430006B8389819A818130910591F48B819C81B4
:100440002FEF8F3F920761F485E699E060E040E08E
:1004500020E000E00E94664788E499E00E94DC1FEB
:100460000F900F900F900F90CF91DF910F91089503
:10047000DF93CF93CDB7DEB781E090E06FEF7FEFF2
:100480000E940E02CF91DF910895DF93CF93CDB7F5
:10049000DEB728970FB6F894DEBF0FBECDBF9A83A4
:1004A00089837C836B835E834D8338872F834B8165
:1004B0005C8189819A812D813E81EF81F885BA0125
:1004C000A9019F010E94374D28960FB6F894DEBF10
:1004D0000FBECDBFCF91DF910895DF93CF9300D0B2
:1004E0000F92CDB7DEB79A8389837C836B83898132
:1004F0009A812B813C81B9010E94C74D89819A81E3
:100500000F900F900F900F90CF91DF910895DF9390
:10051000CF9300D00F92CDB7DEB79A8389837C83C7
:100520006B8389819A812B813C81B9010E94244E81
:1005300089819A810F900F900F900F90CF91DF914A
:100540000895EF92FF920F931F93DF93CF9300D004
:100550000F92CDB7DEB79A8389837C836B83E98161
:10056000FA8180819181FC013296E080F1800B81DB
:100570001C818B819C810E94F5569C0189819A8106
:10058000B801A901F70119950F900F900F900F90E6
:10059000CF91DF911F910F91FF90EF900895CF922F
:1005A000DF92EF92FF920F931F93DF93CF93CDB71C
:1005B000DEB769970FB6F894DEBF0FBECDBF998B3B
:1005C000888B6A8B4B8B3D8B2C8B1F8B0E8BEDB6E8
:1005D000FEB68DB79EB76C01CE01099620E032E0E1
:1005E000B9010E946F4ECE01099621E032E0B901B7
:1005F0000E94894E8A89882F90E09C01220F331F28
:10060000220F331F220F331F8B89882F90E0280F72
:10061000391FCE010996B9010E946D02CE010996DB
:1006200023E032E0B9010E948702CE0109960E94C0
:10063000FD0101962DB73EB7281B390B0FB6F89474
:100640003EBF0FBE2DBF8DB79EB70196998F888F85
:10065000888D998D0096998F888F288D398D388750
:100660002F830F811885CE0109960E94FD019C0100
:100670002F5F3F4FCE010996B801A90120E030E07D
:100680000E944502E889F98920813181CE010196D5
:10069000B9010E94D04788E499E09E012F5F3F4F47
:1006A000B90142E052E00E94B01F2F81388588E4F2
:1006B00099E0B9010E94A10288E499E02C893D8962
:1006C000B9010E94A10288E499E025E032E0B90175
:1006D0000E94A10288E499E02E893F89B9010E9415
:1006E000A10288E499E00E949E1FCE0109960E9413
:1006F000054F0FB6F894DEBE0FBECDBE0FB6F89410
:10070000FEBE0FBEEDBE69960FB6F894DEBF0FBEFB
:10071000CDBFCF91DF911F910F91FF90EF90DF90B0
:10072000CF900895CF92DF92EF92FF920F931F9395
:10073000DF93CF93CDB7DEB760970FB6F894DEBFE7
:100740000FBECDBF9E838D836F8348873A872987ED
:100750001C870B87EDB6FEB68DB79EB76C018B85F7
:100760009C850E94FD0101962DB73EB7281B390BD1
:100770000FB6F8943EBF0FBE2DBF8DB79EB7019642
:10078000988B8F878F8598890096988B8F872F8578
:1007900038893C832B830B811C818B859C850E942F
:1007A000FD019C012F5F3F4F8B859C85B801A901FE
:1007B00020E030E00E94450289859A850E94FD0173
:1007C00001962DB73EB7281B390B0FB6F8943EBFE4
:1007D0000FBE2DBF8DB79EB701969E878D878D85E5
:1007E0009E8500969E878D872D853E853A83298339
:1007F00009811A8189859A850E94FD019C012F5FDC
:100800003F4F89859A85B801A90120E030E00E9418
:10081000450229813A81EB81FC818D819E816F8126
:1008200048858F010E94CF020FB6F894DEBE0FBE3E
:10083000CDBE0FB6F894FEBE0FBEEDBE60960FB6ED
:10084000F894DEBF0FBECDBFCF91DF911F910F9106
:10085000FF90EF90DF90CF900895CF92DF92EF92CC
:10086000FF920F931F93DF93CF93CDB7DEB72C97F3
:100870000FB6F894DEBF0FBECDBF9C838B836D8314
:100880004E8338872F831A870987EDB6FEB68DB75A
:100890009EB76C018F8198850E94FD0101962DB74E
:1008A0003EB7281B390B0FB6F8943EBF0FBE2DBFC5
:1008B0008DB79EB701969C878B878B859C8500960C
:1008C0009C878B872B853C853A83298309811A81F4
:1008D0008F8198850E94FD019C012F5F3F4F8F8182
:1008E0009885B801A90120E030E00E9445022981E5
:1008F0003A818B819C81E985FA856D814E818F01DA
:100900000E94CF020FB6F894DEBE0FBECDBE0FB66A
:10091000F894FEBE0FBEEDBE2C960FB6F894DEBF67
:100920000FBECDBFCF91DF911F910F91FF90EF9040
:10093000DF90CF900895DF93CF9300D00F92CDB783
:10094000DEB79A8389837C836B83E981FA818B810B
:100950009C819183808388E499E068EB72E20E9435
:100960008D200F900F900F900F90CF91DF910895F1
:10097000DF93CF93CDB7DEB784E361E00E945D5093
:1009800083E361E00E945D5085E361E00E945D5079
:1009900084E360E00E94105183E360E00E94105104
:1009A00085E361E00E941051ACE4B0E0ECE4F0E0DB
:1009B000808180618C93ACE4B0E0ECE4F0E0808175
:1009C00080648C93CF91DF910895DF93CF930F9242
:1009D000CDB7DEB789838DE699E0698148E050E0C4
:1009E0000E943B0D0F90CF91DF910895DF93CF933D
:1009F00000D0CDB7DEB789837B836A838981882F56
:100A000090E00496382F22278A819B81820F931FC2
:100A10000E942F0A0F900F900F90CF91DF910895B1
:100A2000DF93CF930F92CDB7DEB78983898162E0E0
:100A300070E00E94F6040F90CF91DF910895DF934C
:100A4000CF930F92CDB7DEB78983898163E070E0E1
:100A50000E94F6040F90CF91DF910895DF93CF931A
:100A600000D0CDB7DEB7898389810E941F051B8224
:100A7000833111F081E08B838B81882311F01A82FE
:100A800009C08DE699E0698142E050E00E943B0D8B
:100A900081E08A838A810F900F900F90CF91DF9130
:100AA0000895DF93CF9300D00F920F92CDB7DEB7AA
:100AB0008D838D8168E270E00E94F604882F90E0BB
:100AC0009C838B838D8169E270E00E94F604882FFD
:100AD00090E09A8389838B819C81982F88279C83BF
:100AE0008B8389819A8190709A8389832B813C8141
:100AF00089819A81822B932B9C838B838B819C8110
:100B00000F900F900F900F900F90CF91DF9108955D
:100B1000DF93CF9300D00F92CDB7DEB789837B836D
:100B20006A834C838981882F90E00496382F22278E
:100B30008A819B81820F931F6C810E9464090F90B0
:100B40000F900F900F90CF91DF910895DF93CF9387
:100B50000F920F92CDB7DEB789836A83898162E0F5
:100B600070E04A810E9488050F900F90CF91DF912D
:100B70000895DF93CF9300D00F920F92CDB7DEB7D9
:100B800089838DE699E0698140E250E00E943B0D47
:100B900016C089810E941005882F90E0887090709F
:100BA0001C82009711F081E08C839C81992339F09D
:100BB000898168E10E94A6051B821A8217C089817B
:100BC0000E941005882F90E0807190701D82009720
:100BD00011F481E08D839D819923D9F6898160E1AB
:100BE0000E94A60581E090E09B838A838A819B8195
:100BF0000F900F900F900F900F90CF91DF9108956D
:100C0000DF93CF930F92CDB7DEB789838DE699E05E
:100C1000698140E150E00E943B0D89816FEF0E94A5
:100C2000A6050F90CF91DF910895DF93CF9300D069
:100C3000CDB7DEB789837B836A838A819B81892FC5
:100C40009927982F898160E170E0492F0E948805DB
:100C50009A81898161E170E0492F0E9488050F9097
:100C60000F900F90CF91DF910895DF93CF9300D035
:100C7000CDB7DEB789837B836A838A819B81892F85
:100C80009927982F898168E270E0492F0E94880592
:100C90009A81898169E270E0492F0E9488050F904E
:100CA0000F900F90CF91DF910895DF93CF930F9224
:100CB0000F92CDB7DEB789836A83898160E070E0E7
:100CC0004A810E9488050F900F90CF91DF9108957F
:100CD000DF93CF9300D0CDB7DEB789837B836A8360
:100CE0008A819B81892F9927982F898164E070E000
:100CF000492F0E9488059A81898165E070E0492F1B
:100D00000E9488050F900F900F90CF91DF9108956A
:100D1000DF93CF9300D000D0CDB7DEB789836A834D
:100D20005C834B832D838A81813061F08A8182309C
:100D300049F08A81833031F08A81843019F08A81C8
:100D4000853081F589810E9400069A818D81982BDA
:100D50008981692F0E9455068B819C81009739F00B
:100D60002B813C818981B9010E94680611C0809164
:100D70006B0990916C09019690936C0980936B09B3
:100D800020916B0930916C098981B9010E94680634
:100D90008DE699E0698141E050E00E943B0D81E0E1
:100DA0008E8301C01E828E8126960FB6F894DEBF18
:100DB0000FBECDBFCF91DF910895DF93CF93CDB715
:100DC000DEB727970FB6F894DEBF0FBECDBF89837D
:100DD0007B836A835D834C833F832E838981882F45
:100DE00090E00496382F22278A819B81820F931FDF
:100DF0002C813D814E815F81B9010E94E6092796D1
:100E00000FB6F894DEBF0FBECDBFCF91DF9108952E
:100E1000DF93CF9300D0CDB7DEB789837B836A831E
:100E20002A813B8189816CE070E0A90124E030E0F7
:100E30000E94DD060F900F900F90CF91DF910895E3
:100E4000DF93CF93CDB7DEB727970FB6F894DEBF09
:100E50000FBECDBF89837B836A835D834C83EA8128
:100E6000FB8180818823A9F48A819B81FC013196D2
:100E70008081882371F48A819B81FC013296808174
:100E8000882339F48A819B81FC01339680818823F1
:100E900021F08C819D81009719F41F821E8210C061
:100EA0002A813B818981B9010E9408072C813D81FB
:100EB0008981B9010E94150681E090E09F838E83AD
:100EC0008E819F8127960FB6F894DEBF0FBECDBFEF
:100ED000CF91DF910895DF93CF9300D000D0CDB7AD
:100EE000DEB789837B836A835D834C83EA81FB81E0
:100EF00080818F3FA9F48A819B81FC01319680819A
:100F00008F3F71F48A819B81FC01329680818F3FF3
:100F100039F48A819B81FC01339680818F3FF1F007
:100F2000EA81FB8180818823A9F48A819B81FC016D
:100F300031968081882371F48A819B81FC013296ED
:100F40008081882339F48A819B81FC0133968081DA
:100F5000882321F08C819D81009711F41E8215C099
:100F60002A813B818981B9010E9408072C813D813A
:100F70008981B9010E9415068DE699E0698144E0F6
:100F800050E00E943B0D81E08E838E8126960FB645
:100F9000F894DEBF0FBECDBFCF91DF9108950F93C0
:100FA0001F93DF93CF93CDB7DEB72A970FB6F89490
:100FB000DEBF0FBECDBF8B837D836C835F834E838B
:100FC000398728871A8219828DE699E06B810E9401
:100FD000F70B9C011A86888599852817390710F424
:100FE00081E08A878A85882341F08DE699E06B81CC
:100FF0000E94F70B9A83898304C0888599859A8318
:1010000089838DE699E02C813D81EE81FF81A98164
:10101000BA816B81A9019F018D010E94970A898184
:101020009A812A960FB6F894DEBF0FBECDBFCF913E
:10103000DF911F910F910895DF93CF93CDB7DEB766
:101040002E970FB6F894DEBF0FBECDBF8E83788784
:101050006F835A8749871D821C821B821A821982DC
:1010600089859A8528E08130920728F080E098E011
:101070009C838B8304C089859A859C838B838DE6B2
:1010800099E06E810E94F70B9A8389838E810E947A
:101090001F058D838D81873131F08D818C3119F061
:1010A0001C821B8207C029813A818B819C81281771
:1010B000390728F38DE699E02F813885EB81FC8193
:1010C0006E81A9019F010E942E0B8DE699E06E8131
:1010D00040E250E00E943B0D11C08E810E941F052E
:1010E0001D86882311F481E08D879D85992331F039
:1010F0008E810E9400061C861B8617C08E810E946E
:101100001005882F90E0807190701E86009711F472
:1011100021E02E878E85882301F78E8160E10E9471
:10112000A6058B819C819C878B878B859C852E96C1
:101130000FB6F894DEBF0FBECDBFCF91DF910895FB
:101140000F93DF93CF9300D0CDB7DEB789837B8336
:101150006A838DE699E02A813B816981A90121E0BA
:1011600030E001E00E94F80C81E090E00F900F90D9
:101170000F90CF91DF910F9108950F93DF93CF934D
:10118000CDB7DEB728970FB6F894DEBF0FBECDBF40
:101190008C837E836D8358874F838DE699E06C81C5
:1011A0000E948F0B9B838A838A819B810097A9F47D
:1011B0008C810E941F0589838981843131F0898166
:1011C000882319F089818C3119F41B821A8210C08E
:1011D0008FEF9FEF9B838A830BC02A813B818F8196
:1011E00098858217930724F48F8198859B838A833F
:1011F0008A819B81181619069CF4EA81FB818DE691
:1012000099E02D813E816C81A9019F0100E00E943F
:10121000F80C8DE699E06C8140E450E00E943B0DB3
:101220008A819B8128960FB6F894DEBF0FBECDBF92
:10123000CF91DF910F910895DF93CF930F920F928B
:10124000CDB7DEB78983EEE4F0E089818083EDE4F9
:10125000F0E080811A82882314F081E08A838A81F9
:101260008823A9F7EEE4F0E080810F900F90CF91F2
:10127000DF910895DF93CF93CDB7DEB7A4E2B0E05E
:10128000E4E2F0E0808180618C93CF91DF9108955A
:10129000DF93CF93CDB7DEB7A5E2B0E0E5E2F0E0B3
:1012A00080818F7E8C93CF91DF910895DF93CF93D0
:1012B000CDB7DEB7A5E2B0E0E5E2F0E08081806185
:1012C0008C93CF91DF910895DF93CF9300D0CDB76A
:1012D000DEB79A8389836B830E94480980EF0E945E
:1012E0001C0989819A81892F99270E941C0989816B
:1012F0000E941C098B810E941C090E94560981E0F2
:101300000F900F900F90CF91DF910895DF93CF93BF
:101310000F920F92CDB7DEB789836A83898161E02E
:1013200070E04A810E9488050F900F90CF91DF9165
:101330000895DF93CF9300D0CDB7DEB789837B8349
:101340006A838A819B81892F9927982F898164E2FA
:1013500070E0492F0E9488059A81898165E270E0DA
:10136000492F0E9488050F900F900F90CF91DF9129
:101370000895DF93CF930F92CDB7DEB7898380E0D6
:1013800090E069810E9464090F90CF91DF910895E8
:10139000DF93CF930F92CDB7DEB789838BE190E0D7
:1013A00069810E9464090F90CF91DF910895DF93C6
:1013B000CF930F92CDB7DEB789838AE190E0698140
:1013C0000E9464090F90CF91DF910895DF93CF932E
:1013D000CDB7DEB728970FB6F894DEBF0FBECDBFEE
:1013E0009C838B837E836D8358874F831A821982F7
:1013F00024C00E94480980EF0E941C098B819C81B7
:10140000892F99270E941C098B810E941C098B81BE
:101410009C8101969C838B832D813E8189819A8159
:10142000F901E80FF91F80810E941C090E945609EA
:1014300089819A8101969A83898329813A818F8152
:10144000988528173907A8F28F81988528960FB6B6
:10145000F894DEBF0FBECDBFCF91DF910895DF932B
:10146000CF9300D0CDB7DEB79B838A830E94480913
:101470008FE00E941C098A819B81892F99270E94F5
:101480001C098A810E941C0980E00E941C09898332
:101490000E94560989810F900F900F90CF91DF9194
:1014A0000895DF93CF930F92CDB7DEB789838981FB
:1014B00061E070E00E94F6040F90CF91DF910895F3
:1014C000DF93CF9300D00F920F92CDB7DEB78D830D
:1014D0008D8164E270E00E94F604882F90E09C8386
:1014E0008B838D8165E270E00E94F604882F90E086
:1014F0009A8389838B819C81982F88279C838B83F7
:1015000089819A8190709A8389832B813C8189811A
:101510009A81822B932B9C838B838B819C810F9050
:101520000F900F900F900F90CF91DF9108950F9330
:101530001F93DF93CF93CDB7DEB761970FB6F894C3
:10154000DEBF0FBECDBF9A8789876B875D874C87CB
:101550003F872E87198B088B8B850E94600A98879E
:101560008F832F8138858C859D85820F931F988767
:101570008F838F81988597709E838D838B85882F2D
:1015800090E029853A85880F991FF901E80FF91F26
:10159000208131818D819E81820F931F9C838B835B
:1015A0002D813E8188899989820F931F28E081309F
:1015B000920790F120E038E08D819E81A901481BBF
:1015C000590BCA019A8389838B819C812E853F8523
:1015D00049815A81B9010E94E6098B85882F90E0E4
:1015E00029853A85880F991FF901E80FF91F608155
:1015F00071812E853F8589819A81A901480F591FE4
:101600002889398989819A81281B390BCB01BA0134
:10161000A9010E94E60909C08B819C812E853F8526
:1016200048895989B9010E94E6092F81388588893E
:101630009989820F931F98878F832F8138858B8597
:10164000B9010E94990961960FB6F894DEBF0FBEEA
:10165000CDBFCF91DF911F910F9108950F931F93ED
:10166000DF93CF93CDB7DEB727970FB6F894DEBFE1
:101670000FBECDBF9A8389836B835D834C833F8389
:101680002E8389819A812C813D81EE81FF816B813E
:1016900040E050E08F010E94970A27960FB6F89419
:1016A000DEBF0FBECDBFCF91DF911F910F91089587
:1016B000DF93CF9300D00F920F92CDB7DEB78D831B
:1016C0008D8166E270E00E94F604882F90E09C8392
:1016D0008B838D8167E270E00E94F604882F90E092
:1016E0009A8389838B819C81982F88279C838B8305
:1016F00089819A8190709A8389832B813C81898129
:101700009A81822B932B9C838B838B819C810F905E
:101710000F900F900F900F90CF91DF910895DF936E
:10172000CF93CDB7DEB727970FB6F894DEBF0FBEC5
:10173000CDBF9E838D836F831C821B821A82198288
:101740008F810E94580B9A83898389819A8100979F
:1017500029F08F810E94580B9C838B832B813C81C5
:1017600089819A812817390759F78B819C8127969F
:101770000FB6F894DEBF0FBECDBFCF91DF910895B5
:10178000DF93CF9300D00F920F92CDB7DEB78D834A
:101790008D8160E270E00E94F604882F90E09C83C7
:1017A0008B838D8161E270E00E94F604882F90E0C7
:1017B0009A8389838B819C81982F88279C838B8334
:1017C00089819A8190709A8389832B813C81898158
:1017D0009A81822B932B9C838B838B819C810F908E
:1017E0000F900F900F900F90CF91DF910895DF939E
:1017F000CF93CDB7DEB727970FB6F894DEBF0FBEF5
:10180000CDBF9E838D836F831C821B821A821982B7
:101810008F810E94C00B9A83898389819A81009766
:1018200029F08F810E94C00B9C838B832B813C818C
:1018300089819A812817390759F78B819C812796CE
:101840000FB6F894DEBF0FBECDBFCF91DF910895E4
:101850000F931F93DF93CF93CDB7DEB728970FB6C3
:10186000F894DEBF0FBECDBF9C838B837E836D83D8
:1018700058874F831A82198226C00E9448098FE038
:101880000E941C098B819C81892F99270E941C0929
:101890008B810E941C098B819C8101969C838B8388
:1018A0002D813E8189819A818901080F191F80E06D
:1018B0000E941C09F80180830E94560989819A813F
:1018C00001969A83898329813A818F819885281787
:1018D000390798F28F81988528960FB6F894DEBF65
:1018E0000FBECDBFCF91DF911F910F9108950F9340
:1018F0001F93DF93CF93CDB7DEB72F970FB6F89432
:10190000DEBF0FBECDBF98878F8369875B874A870D
:101910003D872C871F870E878A859B8597709C83C0
:101920008B838985882F90E02F8138850496880FD6
:10193000991FF901E80FF91F208131818B819C816A
:10194000820F931F9A8389832B813C818E859F858B
:10195000820F931F28E081309207B0F120E038E039
:101960008B819C81A901481B590BCA019E838D83E1
:1019700089819A812C853D854D815E81B9010E94C6
:10198000280C2C853D858D819E81820F931F9D871C
:101990008C878985882F90E02F8138850496880F61
:1019A000991FF901E80FF91F608171812E853F852C
:1019B0008D819E81A901481B590B2C853D85CB014A
:1019C000B9010E94280C09C089819A812C853D8526
:1019D0004E855F85B9010E94280C2F960FB6F894AA
:1019E000DEBF0FBECDBFCF91DF911F910F91089544
:1019F0000F931F93DF93CF93CDB7DEB72A970FB620
:101A0000F894DEBF0FBECDBF9C838B836D835F8355
:101A10004E83398728870A878D810E9451059A83D2
:101A2000898329813A81AE81BF818B819C81E88540
:101A3000F9856D81A9019D018F010E94770C8A852E
:101A4000882371F429813A8188859985820F931FB3
:101A50009A83898329813A818D81B9010E94350653
:101A60002A960FB6F894DEBF0FBECDBFCF91DF919F
:101A70001F910F910895DF93CF9300D000D0CDB781
:101A8000DEB79A8389836B835D834C839C818B81D2
:101A9000692F0E9486098B810E94510A8E838E8154
:101AA000882311F081E08E838E818823A1F726960A
:101AB0000FB6F894DEBF0FBECDBFCF91DF91089572
:101AC000DF93CF9300D00F92CDB7DEB79C838B838B
:101AD0006CE271E080E090E00E94974F0E94B804B1
:101AE0000E943A0980E80E94B90985E50E94C80968
:101AF00085E50E94D7091A82198230C069817A81EE
:101B000089819A810896AC01542F4427550F550FAF
:101B1000550F2B813C81CB01880F991FF901E80FEC
:101B2000F91F5183408349815A8189819A810C969A
:101B3000BC01762F6627770F770F770F2B813C81BB
:101B4000CA010496880F991FF901E80FF91F7183E4
:101B5000608389819A8101969A83898389819A8198
:101B6000843091055CF20F900F900F900F90CF9101
:101B7000DF910895DF93CF9300D00F920F92CDB7EE
:101B8000DEB79A8389837C836B8389819A810296ED
:101B9000FC0120813181428153818B819C8102969D
:101BA000FC0180819181A281B3811D8228173907B0
:101BB0004A075B0711F481E08D838D810F900F90B0
:101BC0000F900F900F90CF91DF910895DF93CF93F7
:101BD00000D00F92CDB7DEB79A8389837C836B8365
:101BE000E981FA8183E898E0918380830F900F90D8
:101BF0000F900F90CF91DF910895DF93CF9300D096
:101C00000F92CDB7DEB79A8389837C836B838981FA
:101C10009A812B813C81B9010E94E60DE981FA810C
:101C20008DE399E091838083EB81FC8182819381B4
:101C3000A481B581E981FA8182839383A483B583EA
:101C40000F900F900F900F90CF91DF9108950F9309
:101C50001F93DF93CF930F920F92CDB7DEB78C0116
:101C60007A836983A80189819A819C01215F3F4F12
:101C7000CA01B9010E94FD0DC801C8010F900F9063
:101C8000CF91DF911F910F910895DF93CF930F9222
:101C90000F92CDB7DEB79A838983E981FA8185896E
:101CA00096890F900F90CF91DF9108950F93DF9356
:101CB000CF9300D00F92CDB7DEB79A8389837C8310
:101CC0006B8389819A818130910571F48B819C812C
:101CD0002FEF8F3F920741F48DE799E060E040E0FD
:101CE00020E000E00E9466470F900F900F900F9049
:101CF000CF91DF910F910895DF93CF93CDB7DEB7EA
:101D000081E090E06FEF7FEF0E94560ECF91DF9160
:101D10000895DF93CF930F920F92CDB7DEB79A83DA
:101D2000898389819A8102960F900F90CF91DF91DC
:101D30000895DF93CF930F920F92CDB7DEB79A83BA
:101D4000898389819A810296FC0180819181A28197
:101D5000B381BC01CD010F900F90CF91DF91089519
:101D6000DF93CF9300D00F92CDB7DEB79A838983EC
:101D70007C836B838B819C819C012E5F3F4F89818B
:101D80009A81820F931F0F900F900F900F90CF9119
:101D9000DF910895DF93CF9300D00F92CDB7DEB7D8
:101DA0009A8389837C836B8389819A810F900F90BA
:101DB0000F900F90CF91DF910895DF93CF9300D0D4
:101DC0000F92CDB7DEB79A8389837C836B83898139
:101DD0009A812B813C81B9010E94CA0EEB81FC8162
:101DE00082819381A481B581E981FA818283938381
:101DF000A483B58389819A810F900F900F900F90E3
:101E0000CF91DF910895DF93CF9300D00F92CDB79C
:101E1000DEB79A8389837C836B8389819A812B8146
:101E20003C81B9010E94DD0EE981FA811782168298
:101E30000F900F900F900F90CF91DF910895DF9347
:101E4000CF93CDB7DEB72E970FB6F894DEBF0FBE97
:101E5000CDBF98878F837A8769875C874B87898511
:101E60009A859E838D8305C08D819E8101969E8378
:101E70008D83ED81FE818081882379F0ED81FE8163
:101E800080818E3289F3ED81FE818081803364F719
:101E9000ED81FE8180818A333CF3ED81FE8180817A
:101EA000882309F06DC089859A859E838D831C8265
:101EB0001B821A8219823CC0ED81FE8180818E32A4
:101EC000D9F489819A818F3F910521F01CF01E86FB
:101ED0001D8658C08B859C852B813C81B9010E9451
:101EE000B00EFC01898180838B819C8101969C834B
:101EF0008B831A82198217C089819A819C01220FD3
:101F0000331FC901880F991F880F991F280F391F88
:101F1000ED81FE818081992787FD9095C097820F82
:101F2000931F9A8389838D819E8101969E838D83E1
:101F3000ED81FE818081882331F08B819C8184300A
:101F400091050CF4B9CF89819A818F3F910509F0F1
:101F50002CF48B819C81843091051CF01E861D869B
:101F600011C08B859C852B813C81B9010E94B00EEC
:101F7000FC018981808381E090E09E878D8702C08B
:101F80001E861D868D859E852E960FB6F894DEBF23
:101F90000FBECDBFCF91DF9108950F93DF93CF9305
:101FA00000D00F92CDB7DEB79A8389837C836B8391
:101FB00089819A818130910571F48B819C812FEF09
:101FC0008F3F920741F483E899E060E040E020E031
:101FD00000E00E9466470F900F900F900F90CF91F6
:101FE000DF910F910895DF93CF93CDB7DEB781E0F6
:101FF00090E06FEF7FEF0E94CD0FCF91DF910895BA
:10200000EF92FF920F931F93DF93CF93CDB7DEB77D
:10201000C854D0400FB6F894DEBF0FBECDBF9CA70A
:102020008BA77EA76DA758AB4FA70E94634FDC011B
:10203000CB018D879E87AF87B88B2FC00E94634FDF
:102040009B01AC018D859E85AF85B889281B390B16
:102050004A0B5B0B8DA59EA5CC01A0E0B0E02496B9
:102060001FAE249782179307A407B50720F421E039
:1020700024962FAF249724963FAD2497332339F02D
:102080008FEF9FEF23969FAF8EAF23970BC262E334
:1020900070E080E090E00E94974F8BA59CA5089689
:1020A0000E94DC1E25961FAE25971816190624F0EF
:1020B00091E025969FAF259725962FAD2597222352
:1020C00009F0BCCF8BA59CA50E94990E7B018C01C9
:1020D0008BA59CA59C01285F3F4FCE014196B9017D
:1020E0000E94270ECE0141960E94990EDC01CB0181
:1020F000E816F9060A071B0741F48BA59CA508966C
:102100000E94450E8533910529F031E021963FAFBD
:10211000219703C021961FAE219721968FAD21975D
:10212000882339F08EEF9FEF23969FAF8EAF2397D2
:10213000B9C18BA59CA508960E94871D1FAE8C3047
:10214000910514F491E09FAF2FAD222339F08DEF6C
:102150009FEF23969FAF8EAF2397A4C18BA59CA51D
:1021600008969E01295E3F4FB9014CE050E00E9465
:10217000371ECE014796FC013296808191818EAF49
:102180009DAF2DAD3EAD3CA32BA3EBA5FCA52681B9
:102190003781FE017796808191812817390721F4D4
:1021A0008BA19CA1992364F08BA59CA508960E9405
:1021B000B81D8CEF9FEF23969FAF8EAF239772C110
:1021C0008BA19CA180709270009731F48BA19CA18F
:1021D0008F709070009761F08BA59CA508960E9467
:1021E000B81D2BEF3FEF23963FAF2EAF23975AC179
:1021F000CE014796FC0136968081918127968FAF5C
:10220000279726969FAF269727968EAD9FAD279747
:102210009C878B878B859C85009761F48BA59CA5FB
:1022200008960E94B81D2AEF3FEF23963FAF2EAFCE
:10223000239738C11A86198645C08BA59CA5089698
:102240009E012B5D3F4FB90141E050E00E94371ED7
:102250008DA18823E9F005C08BA59CA508960E9456
:102260009B1E3DA13AAF8AAD28968FAF289728963E
:102270009FAD2897992321F021E028962FAF28972A
:1022800028969FAD28978AAD81508DA3992321F779
:102290008DA1882391F618861F820AC08BA59CA564
:1022A00008960E949B1E8F819885019698878F8340
:1022B0008F819885843091058CF389859A85019664
:1022C0009A878987CE014796FC0134968081918157
:1022D0008CAF9BAF89859A852BAD3CAD8217930758
:1022E00008F4ABCF1E821D82CAC08BA59CA50896A0
:1022F0009E012A5D3F4FB90141E050E00E94371E28
:102300008EA1882F90E0807C9070009709F58EA1B7
:10231000882321F105C08BA59CA508960E949B1ED1
:102320003EA139AF89AD29968FAF299729969FADE8
:102330002997992321F021E029962FAF29972996F3
:102340009FAD299789AD81508EA3992321F706C0AF
:102350008BA59CA508960E949B1E1EA28EA1882379
:1023600021F68BA59CA508969E01295D3F4FB901DA
:1023700042E050E00E94371E8BA59CA508969E0166
:10238000275D3F4FB90142E050E00E94371E1C829A
:102390001B820AC08BA59CA508960E949B1E8B8160
:1023A0009C8101969C838B838B819C8184309105D9
:1023B0008CF38BA59CA508969E012D5D3F4FB9011E
:1023C00042E050E00E94371E8FA198A588AF9FABD6
:1023D0008FA998AD81309105A9F589A59AA58EABF5
:1023E0009DAB2DA93EA92130310561F58BA19CA1A2
:1023F0008CAB9BAB8BA99CA98430910561F08BA51C
:102400009CA508960E94B81D27EF3FEF23963FAF8B
:102410002EAF239747C08BA59CA58C01085F1F4F4B
:102420008FA598A90E94890E9C01C801B90144E0BA
:1024300050E00E94371E81E090E023969FAF8EAF60
:10244000239730C01A8219820AC08BA59CA50896D2
:102450000E949B1E89819A8101969A8389838BA110
:102460009CA18AAB99AB89819A8129A93AA9821743
:10247000930758F38D819E8101969E838D832D81D4
:102480003E818B859C852817390708F42ECF8BA5B4
:102490009CA508960E94B81D86EF9FEF23969FAFDC
:1024A0008EAF239723968EAD9FAD2397C85BDF4FEA
:1024B0000FB6F894DEBF0FBECDBFCF91DF911F9155
:1024C0000F91FF90EF900895DF93CF93CDB7DEB7D4
:1024D0002B970FB6F894DEBF0FBECDBF99878887C4
:1024E0007B876A870E94634FDC01CB01E885F98511
:1024F0009783868388859985AC01485F5F4F88857F
:10250000998506969C01CA01B90142E050E00E94FB
:10251000661F81E090E09E838D838885998508966B
:102520009E012B5F3F4FB90142E050E00E94661FC1
:1025300080E091E09E838D838885998508969E0131
:102540002B5F3F4FB90142E050E00E94661F1E82A0
:102550001D828885998508969E012B5F3F4FB901A2
:1025600042E050E00E94661F8885998508969E018A
:102570002B5F3F4FB90142E050E00E94661F888503
:10258000998508969E012B5F3F4FB90142E050E0CC
:102590000E94661F8A859B859C838B838B819C818F
:1025A0009A8389834AC08B819C819A83898305C0E1
:1025B00089819A8101969A838983E981FA81808150
:1025C000882329F0E981FA8180818E3289F7898117
:1025D0009A812B813C81821B930B1816190644F5B6
:1025E00089819A81282F8B819C81922F981B892F1A
:1025F0008F838885998508969E01295F3F4FB90191
:1026000041E050E00E94661F88859985AC01485FD3
:102610005F4F6B817C8129813A818B819C81F9019B
:10262000E81BF90BCF019C01CA01A9010E94661F9A
:1026300089819A8101969C838B83E981FA818081CB
:10264000882309F0B0CF1F828885998508969E015E
:10265000295F3F4FB90141E050E00E94661F80E0D2
:1026600091E09E838D838885998508969E012B5FD6
:102670003F4FB90142E050E00E94661F80E091E0C8
:102680009E838D838885998508969E012B5F3F4F99
:10269000B90142E050E00E94661F81E090E02B9675
:1026A0000FB6F894DEBF0FBECDBFCF91DF91089576
:1026B0000F931F93DF93CF93CDB7DEB766970FB617
:1026C000F894DEBF0FBECDBF9E878D87788B6F8756
:1026D0005A8B498B1E821D828D859E852F85388958
:1026E00049895A89B9010E941F0F1E8A009711F06B
:1026F00021E02E8B8E89882329F081E090E09D8B4C
:102700008C8B8EC08D859E8523E839E0B9010E94AF
:10271000BA0D882329F08EEF9FEF9D8B8C8B80C0A4
:102720008D859E858C01085F1F4F0E94634FDC01E1
:10273000CB018F7090709C0120503C4FC801B901B3
:102740000E948D201B8A813011F491E09B8B2B8994
:10275000222309F461C01C821B828D859E858C0119
:10276000085F1F4F2D853E85CE010796B9010E9457
:10277000FD0D9E01295F3F4FC801B90145E350E0BF
:102780000E94B01F9E838D838D819E810097D1F121
:102790008D859E852F853889B9010E9464129E839C
:1027A0008D838D819E81009769F18D859E85089628
:1027B0000E949E1F9E838D838D819E81009711F1C3
:1027C0001A8219828FEF9FEF9E838D8310C08D85B3
:1027D0009E8529893A8968E873E1A9010E94001061
:1027E0009E838D8389819A8101969A8389838981C9
:1027F0009A818330910534F48D819E812FEF8F3F34
:10280000920729F38B819C8101969C838B838D8514
:102810009E8508960E9466208D819E819D8B8C8B63
:102820008C899D8966960FB6F894DEBF0FBECDBF2A
:10283000CF91DF911F910F9108950F931F93DF9315
:10284000CF930F920F92CDB7DEB78C017A83698355
:10285000C80129813A81B9010E94FD0DC801C80152
:102860000F900F90CF91DF911F910F910895DF93FB
:10287000CF930F920F92CDB7DEB79A838983898168
:102880009A810E94E1470F900F90CF91DF910895B8
:102890000F93DF93CF9300D00F92CDB7DEB79A831B
:1028A00089837C836B8389819A818130910591F43E
:1028B0008B819C812FEF8F3F920761F489E999E02A
:1028C00060E040E020E000E00E94664781E999E096
:1028D0000E9437140F900F900F900F90CF91DF91BF
:1028E0000F910895DF93CF93CDB7DEB781E090E0ED
:1028F0006FEF7FEF0E944814CF91DF910895DF932F
:10290000CF930F920F92CDB7DEB79A838983298137
:102910003A818FE090E0B90144E050E00E94280C39
:102920000F900F90CF91DF910895DF93CF9300D058
:102930000F92CDB7DEB79A8389837C836B838B81BB
:102940009C810E947F140F900F900F900F90CF9159
:10295000DF9108950F931F93DF93CF93CDB7DEB729
:1029600028970FB6F894DEBF0FBECDBF8C017887D5
:102970006F83C8010E94E147C8010E94890E9C0133
:102980008DE699E0B9010E949514C801C801289606
:102990000FB6F894DEBF0FBECDBFCF91DF911F9170
:1029A0000F910895DF93CF930F920F92CDB7DEB7BB
:1029B0009A83898329813A818FE090E0B90144E0CC
:1029C00050E00E94E6090F900F90CF91DF9108959B
:1029D000DF93CF9300D00F92CDB7DEB79A83898370
:1029E0007C836B838B819C810E94D2140F900F900B
:1029F0000F900F90CF91DF910895DF93CF930F92B7
:102A00000F92CDB7DEB79A83898329813A8181E01D
:102A100090E0B90144E050E00E94E6090F900F9069
:102A2000CF91DF910895DF93CF9300D00F92CDB770
:102A3000DEB79A8389837C836B838B819C810E9420
:102A4000FD140F900F900F900F90CF91DF9108958C
:102A5000DF93CF930F920F92CDB7DEB79A8389831E
:102A600029813A8185E090E0B90144E050E00E947C
:102A7000E6090F900F90CF91DF910895DF93CF93E8
:102A800000D00F92CDB7DEB79A8389837C836B83A6
:102A90008B819C810E9428150F900F900F900F90B2
:102AA000CF91DF910895DF93CF930F920F92CDB71F
:102AB000DEB79A83898329813A8189E090E0B90160
:102AC00046E050E00E94E6090F900F90CF91DF9111
:102AD0000895DF93CF9300D00F92CDB7DEB79A83DE
:102AE00089837C836B838B819C810E9453150F901B
:102AF0000F900F900F90CF91DF910895EF92FF927A
:102B00000F931F93DF93CF93CDB7DEB72C970FB6FC
:102B1000F894DEBF0FBECDBF9A8389837C836B831D
:102B20005E834D8338872F831A870987FC86EB865F
:102B30008DE699E00E94600D8DE699E02B813C8145
:102B4000B9010E9469158D819E819C012E5F3F4FC6
:102B50008DE699E0B9010E94E81489859A859C0167
:102B60002E5F3F4F8DE699E0B9010E9413158B85CA
:102B70009C859C012E5F3F4F8DE699E0B9010E9434
:102B80003E1589819A812F813885B9010E94DD0E19
:102B90002C960FB6F894DEBF0FBECDBFCF91DF915C
:102BA0001F910F91FF90EF900895DF93CF9300D086
:102BB0000F92CDB7DEB79A8389837C836B83E981DB
:102BC000FA818B819C81938382830F900F900F9069
:102BD0000F90CF91DF910895DF93CF930F920F92D3
:102BE000CDB7DEB79A838983E981FA8183E499E0DE
:102BF00091838083E981FA81138212820F900F9072
:102C0000CF91DF910895DF93CF930F920F92CDB7BD
:102C1000DEB79A83898389819A810E94EC15E981C4
:102C2000FA8181EC98E091838083E981FA8188EED2
:102C300093E0A0E0B0E084839583A683B7830F90F0
:102C40000F90CF91DF910895DF93CF9300D00F9233
:102C5000CDB7DEB79A8389837C836B838B819C811C
:102C60000E94890E0F900F900F900F90CF91DF91DF
:102C70000895DF93CF930F920F92CDB7DEB79A836B
:102C8000898389819A810E940316E981FA8185EA04
:102C900098E0918380830F900F90CF91DF910895FA
:102CA000DF93CF930F920F92CDB7DEB79A838983CC
:102CB00089819A810E943916E981FA8189E898E030
:102CC00091838083E981FA8184E084870F900F905B
:102CD000CF91DF910895DF93CF9300D0CDB7DEB7CA
:102CE0009A8389836B8389819A810E943916E9814D
:102CF000FA8189E898E091838083E981FA818B8168
:102D000084870F900F900F90CF91DF910895DF93FC
:102D1000CF9300D0CDB7DEB79A8389836B83E981E7
:102D2000FA8180819181FC0132960190F081E02D41
:102D300089819A819E012D5F3F4FB90141E050E0AA
:102D400019950F900F900F90CF91DF910895DF9319
:102D5000CF9300D0CDB7DEB79A8389830CC0E981C9
:102D6000FA8180819181FC0136960190F081E02DFD
:102D700089819A811995E981FA8180819181FC018B
:102D800034960190F081E02D89819A8119951B82FA
:102D9000009711F081E08B838B81882301F70F90DE
:102DA0000F900F90CF91DF910895DF93CF9300D0D4
:102DB000CDB7DEB79A838983E981FA8184851B8246
:102DC000843011F081E08B838B810F900F900F90F6
:102DD000CF91DF9108950F93DF93CF9300D00F929F
:102DE000CDB7DEB79A8389837C836B8389819A818F
:102DF0008130910571F48B819C812FEF8F3F920779
:102E000041F48FE999E060E040E020E000E00E94BA
:102E100066470F900F900F900F90CF91DF910F9119
:102E20000895DF93CF93CDB7DEB781E090E06FEFE9
:102E30007FEF0E94EB16CF91DF910895DF93CF9340
:102E4000CDB7DEB727970FB6F894DEBF0FBECDBF64
:102E500089837B836A835D834C833F832E8389814F
:102E6000882F90E00496382F22278A819B81820F39
:102E7000931F2C813D814E815F81B9010E94280CF6
:102E800027960FB6F894DEBF0FBECDBFCF91DF916E
:102E90000895DF93CF9300D0CDB7DEB789837B83CE
:102EA0006A832A813B8189816CE070E0A90124E07A
:102EB00030E00E941E170F900F900F90CF91DF917E
:102EC0000895DF93CF9300D00F92CDB7DEB79A83EA
:102ED00089837C836B83E981FA8184852B813C81A2
:102EE000B9010E9449178B819C810F900F900F9020
:102EF0000F90CF91DF910895DF93CF9300D0CDB79E
:102F0000DEB79A838983E981FA818485843011F45C
:102F10001B8206C0E981FA8184850E941F058B838C
:102F20008B810F900F900F90CF91DF910895DF93D9
:102F3000CF9300D00F920F92CDB7DEB79B838A83D9
:102F4000EA81FB818485843011F41D8225C08A8149
:102F50009B810E947C17898389818431D1F089818A
:102F60008823B9F089818831A1F089818C3171F48D
:102F7000EA81FB8180819181FC0134960190F0818E
:102F8000E02D8A819B811995009719F081E08C834F
:102F900001C01C828C818D838D810F900F900F90CA
:102FA0000F900F90CF91DF910895DF93CF93CDB71E
:102FB000DEB728970FB6F894DEBF0FBECDBF9E8355
:102FC0008D83ED81FE818485843009F457C0ED81C5
:102FD000FE8184850E94E5040E94634FDC01CB01E1
:102FE00089839A83AB83BC8306C061E070E080E094
:102FF00090E00E94974F8D819E810E947C178823CC
:10300000B9F00E94634FDC01CB0129813A814B81E9
:103010005C81821B930BA40BB50B883E23E09207C7
:1030200020E0A20720E0B20718F481E08F8301C0FE
:103030001F828F818823C9F68D819E810E947C1713
:1030400088872885222311F081E088878885882356
:1030500029F0ED81FE8184850E940006ED81FE81CC
:103060008485882F90E0880F991FFC01E757F64F61
:1030700011821082ED81FE8184E0848728960FB64C
:10308000F894DEBF0FBECDBFCF91DF910895DF93DF
:10309000CF9300D000D0CDB7DEB79B838A83EA817F
:1030A000FB8180819181FC0134960190F081E02DBB
:1030B0008A819B8119951E82009711F421E02E834D
:1030C0003E81332329F08FEF9FEF9D838C830EC0C9
:1030D000EA81FB8184859E012F5F3F4FB9010E94E9
:1030E000A0088981282F30E03D832C838C819D812D
:1030F00026960FB6F894DEBF0FBECDBFCF91DF91FD
:103100000895DF93CF9300D000D0CDB7DEB79A8378
:1031100089837C836B835E834D83E981FA81848517
:103120004D815E812B813C81B9010E94BD082696AC
:103130000FB6F894DEBF0FBECDBFCF91DF910895DB
:10314000DF93CF9300D000D0CDB7DEB79B838A83C7
:10315000EA81FB8184859E012F5F3F4FB90141E0E9
:1031600050E00E94BD081E821816190614F421E0D2
:103170002E833E81332331F08981282F30E03D8337
:103180002C8304C08FEF9FEF9D838C838C819D8166
:1031900026960FB6F894DEBF0FBECDBFCF91DF915C
:1031A0000895DF93CF9300D00F92CDB7DEB79A8307
:1031B0008983E981FA818485843059F0E981FA8133
:1031C00024858DE699E0622F0E948F0B9C838B8370
:1031D00002C01C821B828B819C810F900F900F90EC
:1031E0000F90CF91DF910895DF93CF93CDB7DEB7E6
:1031F00029970FB6F894DEBF0FBECDBF9A8389839F
:103200007C836B835E834D83E981FA81848584307E
:1032100049F489819A8161E070E00E94D515198690
:1032200018861FC0E981FA8184852B813C814D81FC
:103230005E81B9010E941C081F82009711F481E091
:103240008F839F81992349F089819A8161E070E0A1
:103250000E94D5151986188604C08D819E81998794
:1032600088878885998529960FB6F894DEBF0FBEAA
:10327000CDBFCF91DF9108951F93DF93CF93CDB74B
:10328000DEB72E970FB6F894DEBF0FBECDBF9D837D
:103290008C837F836E8359874887EC81FD81848589
:1032A000843019F01E861D8691C01B821A8217C0B9
:1032B0008A810E941F0589838981882331F0898151
:1032C000883119F089818C3129F48A81EC81FD8162
:1032D00084870AC08A819B8101969B838A838A8125
:1032E0009B818430910524F3EC81FD8184858430B9
:1032F00019F41E861D866AC08091FF079091000810
:103300000196909300088093FF078091FF079091AA
:103310000008009731F480E094E0909300088093D7
:10332000FF07EC81FD8184852091FF073091000823
:1033300061E0A90120E00E948806EC81FD811485EE
:103340008C819D812E813F81B9010E9424169C01B0
:1033500048855985812FB9010E946B071C868823F7
:1033600011F481E08C879C85992301F1EC81FD812A
:1033700084E084871E861D8629C061E070E080E0BD
:1033800090E00E94974F8C819D810E947C171A8645
:10339000882311F481E08A879A85992339F0EC819A
:1033A000FD8184E084871E861D8610C08C819D81EE
:1033B0000E947C171B86873111F081E08B879B85EB
:1033C0009923D9F681E090E09E878D878D859E8533
:1033D0002E960FB6F894DEBF0FBECDBFCF91DF9112
:1033E0001F910895DF93CF930F920F92CDB7DEB761
:1033F0009A83898389819A810E94E14789819A8190
:1034000008960E94DC1F0F900F90CF91DF910895D6
:103410000F931F93DF93CF93CDB7DEB7EF970FB620
:10342000F894DEBF0FBECDBF99AF88AF7BAF6AAF58
:103430005DAF4CAF1A821982CE0145960E94F219F7
:10344000CE010F960E94E147CE01099621E939E0AD
:10345000B9010E941D14CE0145969E01275F3F4F82
:10346000B9010E94030FCE0145962AAD3BADAE01D6
:10347000415F5F4FB9010E9458139A838983898104
:103480009A8181309105E9F4E8ADF9AD80819181AF
:10349000FC013C9600811181CE0103969E01215FC3
:1034A0003F4FB9010E94FD0D88AD99AD9E012D5F82
:1034B0003F4F4CAD5DADB901F80119959FAF8EAF8F
:1034C00004C089819A819FAF8EAF8EAD9FADEF967C
:1034D0000FB6F894DEBF0FBECDBFCF91DF911F9125
:1034E0000F910895DF93CF930F920F92CDB7DEB770
:1034F0009A83898389819A810E94EC15E981FA81F6
:103500008BED98E0918380830F900F90CF91DF91A6
:103510000895DF93CF930F920F92CDB7DEB79A83C2
:10352000898389819A810E94721AE981FA8181EDE9
:1035300098E0918380830F900F90CF91DF91089551
:10354000DF93CF9300D00F92CDB7DEB79A838983F4
:103550007C836B83E981FA818B819C819583848351
:103560000F900F900F900F90CF91DF910895DF9300
:10357000CF9300D00F92CDB7DEB79A8389837C8337
:103580006B83E981FA8183E499E091838083EB8105
:10359000FC8182819381E981FA81938382830F90F8
:1035A0000F900F900F90CF91DF910895DF93CF93FD
:1035B00000D00F92CDB7DEB79A8389837C836B836B
:1035C00089819A812B813C81B9010E94B71AE981D6
:1035D000FA8181EC98E091838083EB81FC81848186
:1035E0009581A681B781E981FA8184839583A68339
:1035F000B783EB81FC8180859185A285B385E981C4
:10360000FA8180879187A287B3870F900F900F90E0
:103610000F90CF91DF910895DF93CF9300D00F9259
:10362000CDB7DEB79A8389837C836B8389819A8146
:103630002B813C81B9010E94D61AE981FA8185EA81
:1036400098E0918380830F900F900F900F90CF910F
:10365000DF910895DF93CF9300D00F92CDB7DEB7FF
:103660009A8389837C836B8389819A812B813C81B6
:10367000B9010E940C1BE981FA8189E898E09183E5
:103680008083EB81FC818485E981FA8184870F90B6
:103690000F900F900F90CF91DF910895DF93CF930C
:1036A00000D0CDB7DEB79A8389836B83E981FA8135
:1036B00080819181FC0132960190F081E02D898119
:1036C0009A819E012D5F3F4FB90141E050E019956D
:1036D0000F900F900F90CF91DF9108950F93DF938C
:1036E000CF9300D00F92CDB7DEB79A8389837C83C6
:1036F0006B8389819A818130910571F48B819C81E2
:103700002FEF8F3F920741F485EA99E060E040E0B7
:1037100020E000E00E9466470F900F900F900F90FE
:10372000CF91DF910F910895DF93CF93CDB7DEB79F
:1037300081E090E06FEF7FEF0E946E1BCF91DF91F1
:103740000895DF93CF93CDB7DEB765970FB6F894A2
:10375000DEBF0FBECDBF9B8B8A8B1C821B821A8261
:10376000198243C02981CE010596622F0E946B16F3
:1037700089819A81880F991FFC01E757F64F2081B4
:103780003181EA89FB89848195812817390741F5C0
:10379000CE0105960E947C171D8A843111F481E0C8
:1037A0008D8B8D89882329F081E090E09C838B8329
:1037B00017C0CE0105960E947C178C3149F4CE01CA
:1037C00005960E94D118009719F481E08C8B01C0F6
:1037D0001C8A8C89882321F0CE0105960E94D5177A
:1037E00089819A8101969A83898389819A8184301B
:1037F00091050CF4B7CF8B819C81009761F4EA8925
:10380000FB8980819181FC0134960190F081E02D4B
:103810008A899B89199565960FB6F894DEBF0FBE0D
:10382000CDBFCF91DF910895DF93CF93CDB7DEB7B2
:1038300068970FB6F894DEBF0FBECDBF9B8B8A8B07
:103840007D8B6C8B5F8B4E8B1C821B828A899B8944
:103850000E94A11B1A82198238C02981CE010596C7
:10386000622F0E946B1689819A81880F991FFC0133
:10387000E757F64F20813181EA89FB898481958160
:103880002817390749F4CE0105960E947C17873125
:1038900019F481E0888F01C0188E888D882381F00B
:1038A000CE0105962C893D894E895F89B9010E9418
:1038B000F4189C018B819C81820F931F9C838B83C6
:1038C00089819A8101969A83898389819A8184303A
:1038D00091051CF28B819C8168960FB6F894DEBF2F
:1038E0000FBECDBFCF91DF910895DF93CF93CDB7BA
:1038F000DEB765970FB6F894DEBF0FBECDBF9D8BC8
:103900008C8B798B688B888999890E94A11B1A827C
:10391000198243C02981CE010396622F0E946B1643
:1039200089819A81880F991FFC01E757F64F208102
:103930003181E889F989848195812817390779F4DB
:10394000CE0103960E947C17873131F0CE01039699
:103950000E947C178C3119F481E08B8B01C01B8A8B
:103960008B898823A9F0CE0103960E94D1181A8A68
:10397000009711F081E08A8B8A89882349F08C892D
:103980009D899E012D5F3F4FB9010E942A1B10C0E7
:1039900089819A8101969A83898389819A81843069
:1039A00091050CF4B7CF8C899D8964E00E946B1659
:1039B0008C899D898C899D8965960FB6F894DEBFA8
:1039C0000FBECDBFCF91DF910895DF93CF93CDB7D9
:1039D000DEB762970FB6F894DEBF0FBECDBF998BEE
:1039E000888B1A82198232C02981CE010396622FF8
:1039F0000E946B16CE0103960E947C171A8A8823B8
:103A000011F481E08A8B8A898823D9F08981E88939
:103A1000F9892481358161E0A90120E00E948806AE
:103A200089810E942E0589819A81E889F9892481FA
:103A30003581880F991FFC01E757F64F31832083AA
:103A40000AC089819A8101969A83898389819A81A2
:103A5000843091054CF262960FB6F894DEBF0FBE2B
:103A6000CDBFCF91DF910895DF93CF9300D00F9218
:103A7000CDB7DEB79A8389837C836B838B819C81EE
:103A80000E94890E0F900F900F900F90CF91DF91B1
:103A90000895DF93CF9300D000D0CDB7DEB79A83DF
:103AA00089837C836B835E834D83E981FA81808186
:103AB0009181FC0178960190F081E02D4B815C8131
:103AC00089819A812D813E81BA01A9011995269695
:103AD0000FB6F894DEBF0FBECDBFCF91DF91089532
:103AE000DF93CF930F920F92CDB7DEB79A8389837E
:103AF00089819A810E940316E981FA8189E099E01F
:103B0000918380830F900F90CF91DF910895DF9381
:103B1000CF930F920F92CDB7DEB79A838983E98155
:103B2000FA81818D928D0F900F90CF91DF91089542
:103B3000DF93CF9300D0CDB7DEB79A8389836B83B1
:103B4000E981FA8180819181FC0132960190F081B6
:103B5000E02D89819A819E012D5F3F4FB90141E09F
:103B600050E019950F900F900F90CF91DF9108952D
:103B7000DF93CF930F920F92CDB7DEB79A838983ED
:103B80000CC0E981FA8180819181FC013696019017
:103B9000F081E02D89819A811995E981FA81818DE1
:103BA000928D009771F70F900F90CF91DF9108954C
:103BB0000F93DF93CF9300D00F92CDB7DEB79A83E8
:103BC00089837C836B8389819A818130910571F42B
:103BD0008B819C812FEF8F3F920741F48BEA99E014
:103BE00060E040E020E000E00E9466470F900F9008
:103BF0000F900F90CF91DF910F910895DF93CF93A6
:103C0000CDB7DEB781E090E06FEF7FEF0E94D81D67
:103C1000CF91DF910895DF93CF9300D00F920F9251
:103C2000CDB7DEB79B838A83EA81FB81818D928D3C
:103C3000009729F42FEF3FEF3D832C830EC0EA81DC
:103C4000FB8184859E012F5F3F4FB9010E94A00830
:103C50008981282F30E03D832C838C819D810F90BA
:103C60000F900F900F900F90CF91DF910895DF93F9
:103C7000CF93CDB7DEB72A970FB6F894DEBF0FBE4D
:103C8000CDBF9C838B837E836D8358874F83EB816D
:103C9000FC81818D928D009709F43EC0EB81FC81FF
:103CA000218D328D8F8198858217930788F0EB8163
:103CB000FC816485EB81FC81818D928DAC012D812D
:103CC0003E81862FB9010E94BD089A8389830CC06A
:103CD000EB81FC8184854F8158852D813E81B9011E
:103CE0000E94BD089A83898389819A8118161906D2
:103CF0009CF4EB81FC81218D328D89819A81A9010F
:103D0000481B590BCA01EB81FC81928F818F8981FD
:103D10009A819A87898704C04FEF5FEF5A87498756
:103D200089859A852A960FB6F894DEBF0FBECDBF5F
:103D3000CF91DF910895DF93CF9300D000D0CDB71E
:103D4000DEB79B838A83EA81FB81818D928D009708
:103D500089F0EA81FB8184859E012F5F3F4FB90185
:103D600041E050E00E94BD08181619061CF421E03D
:103D70002E8301C01E828E81882379F0EA81FB8127
:103D8000818D928D0197EA81FB81928F818F89814C
:103D9000282F30E03D832C8304C08FEF9FEF9D835D
:103DA0008C838C819D8126960FB6F894DEBF0FBE62
:103DB000CDBFCF91DF910895DF93CF93CDB7DEB71D
:103DC0002F970FB6F894DEBF0FBECDBF9C878B87B1
:103DD000EB85FC8580819181FC013A960190F08110
:103DE000E02D8B859C851995EB85FC8524858DE6DA
:103DF00099E0622F0E948F0B1F86009711F081E0DF
:103E00008F879F85992309F454C01A821982EB8504
:103E1000FC8584859E012D5F3F4FB90148E050E04D
:103E20000E94BD089A83898389819A811816190690
:103E3000DCF58B859C850F969E012D5F3F4FB90168
:103E40000E94C3478F81882F90E0EB85FC85968B7D
:103E5000858BEB85FC8585899689382F2227888577
:103E6000882F90E0820F931FEB85FC85968B858BC6
:103E70008985882F90E0EB85FC85928F818FEB857B
:103E8000FC85818D928D382F22278A85882F90E09E
:103E9000820F931FEB85FC85928F818FEB85FC85CC
:103EA000818D928D9A83898389819A819E878D875E
:103EB00002C01E861D868D859E852F960FB6F894AE
:103EC000DEBF0FBECDBFCF91DF910895DF93CF93BB
:103ED000CDB7DEB728970FB6F894DEBF0FBECDBFC3
:103EE0009C838B837E836D8358874F83EB81FC811A
:103EF0008485EB81FC812789308D4D815E81EF8146
:103F0000F885B9019F010E94CF079A838983EB81CD
:103F1000FC812789308D89819A81820F931FEB81E3
:103F2000FC81908F878B89819A8128960FB6F894AF
:103F3000DEBF0FBECDBFCF91DF910895DF93CF934A
:103F40000F920F92CDB7DEB79A838983E981FA8108
:103F500084850E94B9050F900F90CF91DF9108954D
:103F60001F93DF93CF9300D000D0CDB7DEB79A83F5
:103F700089837C836B835E834D83E981FA81108E14
:103F8000178AE981FA81148589819A812B813C8184
:103F9000B9010E94341D9C014D815E81812FB901C0
:103FA0000E94200726960FB6F894DEBF0FBECDBF45
:103FB000CF91DF911F910895DF93CF930F920F92CE
:103FC000CDB7DEB79A83898389819A810E94701D5B
:103FD000E981FA8185EE98E091838083E981FA8115
:103FE00084E0848789819A810F960E94E1470F902F
:103FF0000F90CF91DF9108950F931F93DF93CF938D
:10400000CDB7DEB7EF970FB6F894DEBF0FBECDBFCA
:1040100099AF88AF7BAF6AAF5DAF4CAF1A821982A0
:10402000CE0145960E94F219CE010F960E94E147FB
:10403000CE01099621E939E0B9010E941D14CE0193
:1040400045969E01275F3F4FB9010E94030FCE01A5
:1040500045962AAD3BADAE01415F5F4FB9010E946D
:1040600058139A83898389819A8181309105E9F473
:10407000E8ADF9AD80819181FC01709600811181DC
:10408000CE0103969E01215F3F4FB9010E94FD0DB5
:1040900088AD99AD9E012D5F3F4F4CAD5DADB9012F
:1040A000F80119959FAF8EAF04C089819A819FAFA7
:1040B0008EAF8EAD9FADEF960FB6F894DEBF0FBEFC
:1040C000CDBFCF91DF911F910F910895DF93CF93D3
:1040D0000F920F92CDB7DEB79A838983E981FA8177
:1040E00084858430A9F0E981FA8184850E940006E4
:1040F000E981FA818485882F90E0880F991FFC015F
:10410000E757F64F11821082E981FA8184E08487B3
:104110000F900F90CF91DF910895DF93CF93CDB79C
:10412000DEB728970FB6F894DEBF0FBECDBF9D83D4
:104130008C837F836E83EC81FD818485843011F0D4
:1041400018863BC01B821A8214C08A810E941F05F8
:1041500089838981882319F08981883129F48A81AA
:10416000EC81FD8184870AC08A819B8101969B83B3
:104170008A838A819B81843091053CF3EC81FD81A7
:104180008485843011F4188618C0EC81FD818E81FD
:104190009F8196878587EC81FD81128E118EEC813F
:1041A000FD818485EC81FD812585368562E0A9014C
:1041B00020E00E94880681E08887888528960FB6CF
:1041C000F894DEBF0FBECDBFCF91DF910895DF938E
:1041D000CF93CDB7DEB76D970FB6F894DEBF0FBEA5
:1041E000CDBF9A8B898B6B8B87E08B871A861E825B
:1041F0000CC08E81282F30E0CE010C96FC01E20F1E
:10420000F31F10828E818F5F8E838E81853088F3BD
:104210008B8961E00E945D508B8960E00E941051A3
:1042200062E170E080E090E00E94974F8B8961E04E
:104230000E94105188E290E00E94BD4F8B8960E09F
:104240000E945D5080E197E29987888712C01C8E9A
:1042500088859985009711F481E08C8F88859985F0
:104260000197998788878C8D882319F08EEF8B8F23
:10427000DAC08B890E9443511D8E009711F481E0B2
:104280008D8F8D8D882319F780E197E29987888734
:1042900012C0198E88859985009711F481E0898F65
:1042A00088859985019799878887898D882319F052
:1042B0008EEF8B8FB8C08B890E9443511A8E81304C
:1042C000910511F481E08A8F8A8D882311F71D8270
:1042D00092C080E197E29987888712C01F8A8885FB
:1042E0009985009711F481E08F8B888599850197D6
:1042F000998788878F89882319F08EEF8B8F93C0D9
:104300008B890E944351188E009711F481E0888FA9
:10431000888D882319F70E94714FDC01CB018983B6
:104320009A83AB83BC8380E197E29987888712C028
:104330001D8A88859985009711F481E08D8B888589
:1043400099850197998788878D89882319F08EEF41
:104350008B8F69C08B890E9443511E8A81309105E1
:1043600011F481E08E8B8E89882311F70E94714FA2
:10437000DC01CB0129813A814B815C81821B930B4B
:10438000A40BB50B1C8A89329105A105B10510F06B
:1043900081E08C8B8C898823F9F08A85482F50E046
:1043A0008A85282F30E0CE010C96FC01E20FF31F26
:1043B0008081682F8B85282F30E081E090E002C05B
:1043C000880F991F2A95E2F7862B282FCE010C968D
:1043D000FC01E40FF51F20838B85882331F487E0EF
:1043E0008B878A858F5F8A8703C08B8581508B87F7
:1043F0008D818F5F8D838D81883208F46ACF8C85A3
:10440000E989FA8980838E85E989FA8981839C8587
:104410008E85890F8F8398898F81981719F08FEF78
:104420008B8F01C01B8E8B8D6D960FB6F894DEBFFF
:104430000FBECDBFCF91DF910895EF92FF920F9302
:104440001F93DF93CF93CDB7DEB76A970FB6F8947B
:10445000DEBF0FBECDBF9A8B898B4B8B5C8B6D8B78
:104460007E8B0F8B188F298F3A8F6B897C898D8972
:104470009E8923E333E948E853E40E947451DC0148
:10448000CB019C01AD0163E373E98AEB93E40E94E5
:10449000D851DC01CB018D879E87AF87B88B6D85A6
:1044A0007E858F85988920E030E040E85FE30E94B8
:1044B0007351DC01CB01BC01CD0126E335EE4CEF9D
:1044C00050EC0E941953DC01CB0189879A87AB8796
:1044D000BC878D859E85AF85B889BC01CD010E94C2
:1044E000CE52DC01CB01BC01CD0128E036EE40EA22
:1044F00050E40E941953DC01CB019C01AD01698598
:104500007A858B859C850E947451DC01CB0189875B
:104510009A87AB87BC8760E070E080E89FEB2D85D1
:104520003E854F8558890E94D851DC01CB01BC01E2
:10453000CD0120E030E040E85FE30E947451DC01EF
:10454000CB01BC01CD0126E031E845E351E40E94F6
:104550001953DC01CB019C01AD0160E070E080E209
:1045600091E40E947C53DC01CB01BC01CD0120E031
:1045700030E040E85FE30E947351DC01CB01BC01F5
:10458000CD0122E239E544E154EB0E941953DC01EC
:10459000CB019C01AD0169857A858B859C850E9444
:1045A0007451DC01CB0189879A87AB87BC876D8505
:1045B0007E858F85988920E030E040E85FE30E94A7
:1045C0007351DC01CB01BC01CD0122E934E74FE599
:1045D00050EC0E941953DC01CB019C01AD0160E05D
:1045E00070E080E291E40E947C53DC01CB01BC01CD
:1045F000CD0120E030E040E85FE30E947351DC0130
:10460000CB01BC01CD0120E73FE345E05CE30E9424
:104610001953DC01CB019C01AD0169857A858B853D
:104620009C850E947451DC01CB0189879A87AB87F6
:10463000BC8769857A858B859C8522EA3DE540E4C7
:1046400050E40E947451DC01CB0189879A87AB87C3
:10465000BC8769857A858B859C8520E030E040E4C5
:1046600050E40E947351DC01CB019C01AD0160E07C
:1046700070E080E291E40E947C53DC01CB01BC013C
:10468000CD012F89388D498D5A8D0E941953DC0137
:10469000CB018D839E83AF83B8876D817E818F81AF
:1046A000988524E13CE54CE15FE30E94D851DC01B0
:1046B000CB01BC01CD010E94D952DC01CB01898321
:1046C0009A83AB83BC8369817A818B819C8128E446
:1046D00031EE41E753E40E941953DC01CB017C0128
:1046E0008D0169EC76E78CE891E429813A814B8170
:1046F0005C810E947351DC01CB019C01AD01C801BA
:10470000B7010E94D851DC01CB01BC01CD016A96F2
:104710000FB6F894DEBF0FBECDBFCF91DF911F91D2
:104720000F91FF90EF900895CF92DF92EF92FF925A
:104730000F931F93DF93CF930F920F92CDB7DEB7F6
:104740009A838983E981FA818181992787FD9095F0
:10475000A92FB92FBC01CD010E9442526B017C01EF
:10476000E981FA818081992787FD9095A92FB92F3A
:10477000BC01CD010E9442528B019C0189819A812A
:10478000B701A6010E941D22DC01CB01BC01CD01B5
:104790000F900F90CF91DF911F910F91FF90EF90AD
:1047A000DF90CF900895DF93CF9300D0CDB7DEB7E1
:1047B0009A838983E981FA818689882319F081E0C7
:1047C0008B8301C01B828B810F900F900F90CF9134
:1047D000DF9108950F93DF93CF9300D00F92CDB761
:1047E000DEB79A8389837C836B8389819A81813048
:1047F000910571F48B819C812FEF8F3F920741F4DB
:1048000081EB99E060E040E020E000E00E94664734
:104810000F900F900F900F90CF91DF910F9108950F
:10482000DF93CF93CDB7DEB781E090E06FEF7FEFFE
:104830000E94EA23CF91DF910895DF93CF930F92E7
:104840000F92CDB7DEB79A838983E981FA8194818B
:1048500081E08927882371F0E981FA8181E08483EE
:104860000E94634FDC01CB01E981FA81808391834F
:10487000A283B3830F900F90CF91DF910895EF92B1
:10488000FF920F931F93DF93CF93CDB7DEB72B9794
:104890000FB6F894DEBF0FBECDBF9E838D834F83CE
:1048A000588769877A870E94634FDC01CB0189832F
:1048B0009A83AB83BC83ED81FE812081318142816B
:1048C000538189819A81AB81BC817C018D01E21A7F
:1048D000F30A040B150BA80197018F819885A98510
:1048E000BA85281739074A075B0780F0ED81FE81FA
:1048F00089819A81AB81BC8180839183A283B383B8
:10490000ED81FE81148201E00B8701C01B868B853F
:104910002B960FB6F894DEBF0FBECDBFCF91DF91BF
:104920001F910F91FF90EF900895DF93CF930F9217
:104930000F92CDB7DEB79A8389830E94634FDC0163
:10494000CB01E981FA8180839183A283B383E981DA
:10495000FA8114820F900F90CF91DF910895EF921A
:10496000FF920F931F93DF93CF93CDB7DEB72A97B4
:104970000FB6F894DEBF0FBECDBF9E838D834F83ED
:10498000588769877A8719821A821B821C82ED8177
:10499000FE81878D90A1A1A1B2A10097A105B105CB
:1049A00091F483E49DE027E032E0B9010E942949B7
:1049B0000E94634FDC01CB01ED81FE81878F90A3C4
:1049C000A1A3B2A3C9C00E94634F9B01AC01ED81BA
:1049D000FE81878D90A1A1A1B2A179018A01E81A77
:1049E000F90A0A0B1B0BD801C70189839A83AB8391
:1049F000BC8329813A814B815C818F819885A9850F
:104A0000BA85281739074A075B0708F06BC0ED81A4
:104A1000FE8180A591A5A2A5B3A528EE33E040E0D4
:104A200050E0BC01CD010E949C549B01AC018981E6
:104A30009A81AB81BC81281739074A075B0708F0C8
:104A40008BC0ED81FE8180A591A5A2A5B3A501969D
:104A5000A11DB11D28EE33E040E050E0BC01CD01C6
:104A60000E949C549B01AC0189819A81AB81BC81DD
:104A700082179307A407B50708F06EC083E49DE092
:104A800026E132E0B9010E94294983E49DE02DE14D
:104A900032E0B9010E942949ED81FE8180A591A5EE
:104AA000A2A5B3A50196A11DB11DED81FE8180A730
:104AB00091A7A2A7B3A7ED81FE8187890E94B6497D
:104AC000ED81FE819789ED81FE8164A575A5ED815B
:104AD000FE81808D282F30E040E050E0892F0E9439
:104AE0002D4A3AC0ED81FE8181E0858FED81FE8106
:104AF000848D61E00E941051ED81FE81168EED8162
:104B0000FE81178E10A211A212A2ED81FE8110A6C5
:104B100011A612A613A6ED81FE8187890E94B649CF
:104B2000ED81FE816789ED81FE81808D882F90E087
:104B30009C01220F331FC901880F991F880F991FED
:104B4000820F931F9C01442737FD4095542F862FD9
:104B500064E873E00E942D4A2A960FB6F894DEBFEF
:104B60000FBECDBFCF91DF911F910F91FF90EF90BE
:104B70000895DF93CF9300D00F92CDB7DEB79A831D
:104B800089837C836B8389819A812B813C81B901E4
:104B90000E94344E89819A810F900F900F900F9050
:104BA000CF91DF9108950F931F93DF93CF93CDB7EC
:104BB000DEB72D970FB6F894DEBF0FBECDBF9A8734
:104BC00089876B8789859A85FC01E85AFF4F208188
:104BD00031818B85882F90E0820F931FFC013296E4
:104BE0008081898389859A8522E232E0B9010E9419
:104BF000894E09851A85CE0102966B854AE00E948E
:104C0000D34E9E012E5F3F4FC801B9010E94B925C6
:104C1000CE0102960E94054F89859A852BE232E0EB
:104C2000B9010E94870269857A8589859A85FC0188
:104C3000E85AFF4F0190F081E02D408151818B8532
:104C4000282F30E0C901880F991F880F991F880FFE
:104C5000991F821B930B9A01280F391FCB01B901B1
:104C60000E94B92589859A852FE232E0B9010E9418
:104C700087028981282F30E03D872C878C859D8590
:104C800081309105E9F02C853D85223031052CF4E9
:104C90008C859D85009761F02AC02C853D8522304A
:104CA0003105B1F08C859D8583309105C9F01FC019
:104CB00089859A8523E332E0B9010E94870217C0F3
:104CC00089859A8528E532E0B9010E9487020FC0E4
:104CD00089859A8523E632E0B9010E94870207C0E0
:104CE00089859A8529E732E0B9010E948702898582
:104CF0009A852D960FB6F894DEBF0FBECDBFCF912B
:104D0000DF911F910F9108950F931F93DF93CF931E
:104D1000CDB7DEB72A970FB6F894DEBF0FBECDBF72
:104D20009A87898789859A852EE932E0B9010E94A0
:104D3000894E89859A85865B9F4F0E94743F89833F
:104D400009851A85CE01029669814AE00E94D34EF8
:104D50009E012E5F3F4FC801B9010E94B925CE01C7
:104D600002960E94054F89859A852BE232E0B901AF
:104D70000E9487028981882341F089859A8527EAE4
:104D800032E0B9010E94870207C089859A852AEA24
:104D900032E0B9010E94870289859A852A960FB66A
:104DA000F894DEBF0FBECDBFCF91DF911F910F9161
:104DB00008950F931F93DF93CF93CDB7DEB72A9754
:104DC0000FB6F894DEBF0FBECDBF9A87898789855D
:104DD0009A852EEA32E0B9010E94894E89859A852A
:104DE0008E960E94743F898309851A85CE010296AA
:104DF00069814AE00E94D34E9E012E5F3F4FC80159
:104E0000B9010E94B925CE0102960E94054F8985FD
:104E10009A852BE232E0B9010E94870289818823BA
:104E200041F089859A8527EA32E0B9010E9487021C
:104E300007C089859A852AEA32E0B9010E94870273
:104E400089859A852A960FB6F894DEBF0FBECDBF2E
:104E5000CF91DF911F910F9108950F931F93DF93CF
:104E6000CF93CDB7DEB729970FB6F894DEBF0FBE4C
:104E7000CDBF998788878885998526EB32E0B9016F
:104E80000E94894E08851985E885F985858D282F2A
:104E900030E0CE010196B9014AE00E94A24EC8015D
:104EA0009E012F5F3F4FB9010E94B925CE010196A7
:104EB0000E94054F888599852BE232E0B9010E9456
:104EC0008702E885F985858D882341F08885998555
:104ED0002EEB32E0B9010E94870207C088859985D0
:104EE00024EC32E0B9010E948702888599852996D1
:104EF0000FB6F894DEBF0FBECDBFCF91DF911F91EB
:104F00000F910895DF93CF93CDB7DEB727970FB6F4
:104F1000F894DEBF0FBECDBF9D838C836E834F831D
:104F20008E810E9429509A83898389819A8121E008
:104F30008039920734F41B828F8161E00E94105106
:104F40002CC089819A8121E0803992076CF0898197
:104F50009A8122E08E3492073CF481E08B838F812A
:104F600060E00E94105119C089819A8122E08E343C
:104F700092076CF089819A8123E0803292073CF499
:104F800082E08B838F8161E00E94105106C083E034
:104F90008B838F8161E00E9410518B8127960FB621
:104FA000F894DEBF0FBECDBFCF91DF9108950F9370
:104FB0001F93DF93CF93CDB7DEB727970FB6F89443
:104FC000DEBF0FBECDBF9B838A836C834D838A81F6
:104FD0009B816C814D810E9482278983EA81FB81BC
:104FE000868D882341F08A819B8148E652E460E007
:104FF00070E00E94AF24EA81FB81858D882309F44B
:1050000045C08981813009F414C18A819B818C015A
:10501000025D1F4FEA81FB8184A1882F90E0A0E010
:10502000B0E020E63AEE40E050E0BC01CD010E9445
:105030009C549B01AC01C801BA01A9010E94F63E33
:105040008A819B818C01045C1F4FEA81FB8186A1D0
:10505000882F90E0A0E0B0E020E63AEE40E050E09B
:10506000BC01CD010E949C549B01AC01C801BA0156
:10507000A9010E94F63E8A819B81865B9F4F0E9418
:10508000B83FEA81FB8181E0868BD3C08981282FDC
:1050900030E03F832E838E819F818130910509F41A
:1050A0005CC02E813F81223031052CF48E819F819E
:1050B000009771F0BEC02E813F812230310509F486
:1050C00060C08E819F818330910509F46EC0B1C0AC
:1050D000EA81FB8181E0858F8A819B818C01025D61
:1050E0001F4FEA81FB8184A1882F90E0A0E0B0E00F
:1050F00020E63AEE40E050E0BC01CD010E949C5415
:105100009B01AC01C801BA01A9010E94F63E8A8147
:105110009B818C01045C1F4FEA81FB8186A1882F53
:1051200090E0A0E0B0E020E63AEE40E050E0BC01C4
:10513000CD010E949C549B01AC01C801BA01A90198
:105140000E94F63E8A819B81865B9F4F0E94B83FFA
:10515000EA81FB8181E0868B6CC08A819B818E967F
:105160000E948B3F8A819B81CC960E948B3F8A81D3
:105170009B81865B9F4F0E948B3FEA81FB81168A51
:1051800058C08A819B818E960E948B3F8A819B8129
:10519000CC960E948B3F8A819B81865B9F4F0E94A9
:1051A0008B3FEA81FB81168A44C0EA81FB8181E062
:1051B000858F8A819B818C01025D1F4FEA81FB8173
:1051C00084A1882F90E0A0E0B0E020E63AEE40E035
:1051D00050E0BC01CD010E949C549B01AC01C80170
:1051E000BA01A9010E94F63E8A819B818C01045C70
:1051F0001F4FEA81FB8186A1882F90E0A0E0B0E0FC
:1052000020E63AEE40E050E0BC01CD010E949C5403
:105210009B01AC01C801BA01A9010E94F63E8A8136
:105220009B81865B9F4F0E94B83FEA81FB8181E0B2
:10523000868B898127960FB6F894DEBF0FBECDBF4F
:10524000CF91DF911F910F910895EF92FF920F93ED
:105250001F93DF93CF93CDB7DEB72C970FB6F8949B
:10526000DEBF0FBECDBF9C878B87EB85FC85828D13
:105270008B83EB85FC85838D8A831982CE0104960E
:105280002CEC32E0B9010E946F4EBBC08B859C852F
:10529000FC01E85AFF4F008111818981E82EFF242B
:1052A0008B859C856B814A810E94D727282FC80156
:1052B0008E0D9F1DFC0132962083EB85FC85958D1C
:1052C00081E08927882389F48B859C85FC01E85A35
:1052D000FF4F208131818981882F90E0820F931FB9
:1052E000FC0132968081813091F48B859C85FC0194
:1052F000E85AFF4F208131818981882F90E0820F09
:10530000931FFC0132968081823009F05BC08B854F
:105310009C850E960E941D24EB85FC85958981E075
:105320008927882309F44EC0EB85FC85858D882369
:1053300029F1CE0104962DEC32E0B9010E94894E8C
:105340008B859C8569810E94D3259C01CE010496A2
:10535000B9010E94B9258B859C859C01295F3F4F2F
:1053600083E699E0FE01349667E141E08F010E94F7
:105370009203EB85FC8581E0858B24C0CE010496E9
:1053800028ED32E0B9010E94894E8B859C856981A8
:105390000E94D3259C01CE010496B9010E94B92533
:1053A0008B859C859C01295F3F4F83E699E0FE0138
:1053B000349667E146E08F010E949203EB85FC85FD
:1053C00081E0858B8B859C85BC01625F7F4FEB857F
:1053D000FC85838994899C0140E050E0CB01BA01AF
:1053E000A9010E943F24882319F0EB85FC85158ACA
:1053F0008B818F5F8B838A818F5F8A8389818F5FA7
:105400008983EB85FC85918D8B81891708F43ECFCC
:105410008B859C858E960E94E83F8B859C85CC96DB
:105420000E94E83F8B859C85865B9F4F0E94E83FEA
:10543000CE0104960E94054F2C960FB6F894DEBF5D
:105440000FBECDBFCF91DF911F910F91FF90EF90D5
:1054500008950F931F93DF93CF930F920F92CDB7C1
:10546000DEB79A838983E981FA8181E0858F89811A
:105470009A818C01025D1F4FE981FA8184A1882FF6
:1054800090E0A0E0B0E020E63AEE40E050E0BC0161
:10549000CD010E949C549B01AC01C801BA01A90135
:1054A0000E94F63E89819A818C01045C1F4FE9813C
:1054B000FA8186A1882F90E0A0E0B0E020E63AEEE5
:1054C00040E050E0BC01CD010E949C549B01AC0126
:1054D000C801BA01A9010E94F63E89819A81865BC2
:1054E0009F4F0E94B83F89819A819C01295F3F4F5D
:1054F00083E699E0E0EEF2E067E141E08F010E948F
:105500002D040F900F90CF91DF911F910F9108956F
:105510000F931F93DF93CF930F920F92CDB7DEB708
:105520009A838983E981FA81158EE981FA81848DD4
:1055300060E00E941051E981FA8187890E94B64992
:10554000E981FA819789E981FA81808D282F30E0FD
:1055500040E050E0892F6CEB72E00E942D4AE98117
:10556000FA81808D882F90E0A0E0B0E0BC01CD01F1
:105570000E94974FE981FA819789E981FA81808DAC
:10558000282F30E040E050E0892F64EF71E00E9466
:105590002D4AE981FA81808D882F90E0A0E0B0E06B
:1055A000BC01CD010E94974FE981FA819789E98179
:1055B000FA81808D282F30E040E050E0892F6CE2A6
:1055C00071E00E942D4AE981FA81168EE981FA8103
:1055D000178E10A211A212A289819A81865B9F4F19
:1055E00040ED57E060E070E00E94333F89819A818E
:1055F0009C01295F3F4F83E699E0E0EFF2E067E12D
:1056000044E08F010E942D040F900F90CF91DF9105
:105610001F910F9108950F931F93DF93CF930F92D4
:105620000F92CDB7DEB79A838983E981FA8181E051
:10563000868FE981FA8187890E94B649E981FA81DA
:105640009789E981FA81808D282F30E040E050E091
:10565000892F6CE271E00E942D4AE981FA81808DE8
:10566000882F90E0A0E0B0E0BC01CD010E94974FF0
:10567000E981FA819789E981FA81808D282F30E0CC
:1056800040E050E0892F64EF71E00E942D4AE981EB
:10569000FA81808D882F90E0A0E0B0E0BC01CD01C0
:1056A0000E94974FE981FA819789E981FA81808D7B
:1056B000282F30E040E050E0892F6CEB72E00E9430
:1056C0002D4A89819A81865B9F4F48E95AE360E0C1
:1056D00070E00E94333F89819A819C01295F3F4F8E
:1056E00083E699E0E9EFF2E067E144E08F010E9490
:1056F0002D040F900F90CF91DF911F910F9108957E
:10570000DF93CF930F920F92CDB7DEB79A83898341
:10571000E981FA81868D882329F089819A810E9406
:10572000882A0EC0E981FA81858D882329F0898134
:105730009A810E94882A04C089819A810E940B2B39
:105740000F900F90CF91DF910895DF93CF9300D00A
:105750000F920F92CDB7DEB79D838C838C819D8194
:10576000079620E033E0B9010E94894EEC81FD816B
:1057700088E893E1948B838BEC81FD81158A8C8181
:105780009D818E96EC81FD8123A1622F0E948C4029
:105790008C819D81CC96EC81FD8125A1622F0E9498
:1057A0008C408C819D81865B9F4FEC81FD8127A180
:1057B000622F0E948C40EC81FD81848D61E00E940B
:1057C0005D50EC81FD81848D60E00E941051EC8180
:1057D000FD81128EEC81FD818EE1838FEC81FD8154
:1057E000838D8B83EC81FD81938DEC81FD81818D97
:1057F000890F8A830BC08B8161E00E945D508B8191
:1058000060E00E9410518B818F5F8B838A81282FEB
:1058100030E08B81882F90E0A901481B590BCA0109
:105820001816190644F3EC81FD81158EEC81FD817B
:10583000168EEC81FD81178E10A211A212A2EC81AE
:10584000FD8110A611A612A613A6EC81FD8185E0AC
:1058500091E095A784A7198212C08C819D81FC01DB
:10586000E85AFF4F208131818981882F90E0820F93
:10587000931FFC013296108289818F5F8983EC81AE
:10588000FD81818D282F30E08981882F90E0A9014A
:10589000481B590BCA0118161906FCF2EC81FD8150
:1058A000168A0F900F900F900F900F90CF91DF916D
:1058B0000895DF93CF9300D00F92CDB7DEB79A83D0
:1058C00089837C836B83EB81FC818081E981FA8110
:1058D000878BEB81FC818181E981FA81808FEB816B
:1058E000FC818281E981FA81818FEB81FC812581B4
:1058F000368189819A81FC01E85AFF4F31832083E8
:1059000089819A81FC01E85AFF4FA081B181EB8126
:10591000FC81838194818D939C93EB81FC818781B1
:10592000E981FA81848FEB81FC818085E981FA81AC
:1059300083A3EB81FC818185E981FA8184A3EB81DA
:10594000FC818285E981FA8185A3EB81FC818385D5
:10595000E981FA8186A3EB81FC818485E981FA8162
:1059600087A383E49DE029E033E0B9010E94264942
:10597000EB81FC81208183E49DE0622F4AE050E0CE
:105980000E94084983E49DE02AE133E0B9010E94C6
:105990002649E981FA81278983E49DE0622F4AE064
:1059A00050E00E94084983E49DE025E233E0B9011C
:1059B0000E942649EB81FC81248583E49DE0622FCF
:1059C0004AE050E00E94084983E49DE026E333E08A
:1059D000B9010E942649E981FA8127A183E49DE06B
:1059E000622F4AE050E00E94084989819A810E9412
:1059F000A52B0F900F900F900F90CF91DF910895EE
:105A0000DF93CF930F920F92CDB7DEB79A8389833E
:105A100089819A812CEC32E0B9010E946F4E898114
:105A20009A8107962CEC32E0B9010E946F4E898171
:105A30009A810E960E94952489819A818E960E9461
:105A4000554089819A81CC960E94554089819A81DE
:105A5000865B9F4F0E945540E981FA81178AE98150
:105A6000FA81108EE981FA81148E0F900F90CF91F8
:105A7000DF9108950F93DF93CF9300D00F92CDB7AE
:105A8000DEB79A8389837C836B8389819A81813095
:105A9000910571F48B819C812FEF8F3F920741F428
:105AA00087EB99E060E040E020E000E00E9466477C
:105AB0000F900F900F900F90CF91DF910F9108955D
:105AC000DF93CF93CDB7DEB781E090E06FEF7FEF4C
:105AD0000E943A2DCF91DF910895DF93CF930F92DB
